{
  "_format": "hh-sol-artifact-1",
  "contractName": "MyNFT",
  "sourceName": "contracts/myNFT.sol",
  "abi": [
    {
      "inputs": [],
      "stateMutability": "nonpayable",
      "type": "constructor"
    },
    {
      "inputs": [
        {
          "internalType": "address",
          "name": "sender",
          "type": "address"
        },
        {
          "internalType": "uint256",
          "name": "tokenId",
          "type": "uint256"
        },
        {
          "internalType": "address",
          "name": "owner",
          "type": "address"
        }
      ],
      "name": "ERC721IncorrectOwner",
      "type": "error"
    },
    {
      "inputs": [
        {
          "internalType": "address",
          "name": "operator",
          "type": "address"
        },
        {
          "internalType": "uint256",
          "name": "tokenId",
          "type": "uint256"
        }
      ],
      "name": "ERC721InsufficientApproval",
      "type": "error"
    },
    {
      "inputs": [
        {
          "internalType": "address",
          "name": "approver",
          "type": "address"
        }
      ],
      "name": "ERC721InvalidApprover",
      "type": "error"
    },
    {
      "inputs": [
        {
          "internalType": "address",
          "name": "operator",
          "type": "address"
        }
      ],
      "name": "ERC721InvalidOperator",
      "type": "error"
    },
    {
      "inputs": [
        {
          "internalType": "address",
          "name": "owner",
          "type": "address"
        }
      ],
      "name": "ERC721InvalidOwner",
      "type": "error"
    },
    {
      "inputs": [
        {
          "internalType": "address",
          "name": "receiver",
          "type": "address"
        }
      ],
      "name": "ERC721InvalidReceiver",
      "type": "error"
    },
    {
      "inputs": [
        {
          "internalType": "address",
          "name": "sender",
          "type": "address"
        }
      ],
      "name": "ERC721InvalidSender",
      "type": "error"
    },
    {
      "inputs": [
        {
          "internalType": "uint256",
          "name": "tokenId",
          "type": "uint256"
        }
      ],
      "name": "ERC721NonexistentToken",
      "type": "error"
    },
    {
      "inputs": [
        {
          "internalType": "address",
          "name": "owner",
          "type": "address"
        }
      ],
      "name": "OwnableInvalidOwner",
      "type": "error"
    },
    {
      "inputs": [
        {
          "internalType": "address",
          "name": "account",
          "type": "address"
        }
      ],
      "name": "OwnableUnauthorizedAccount",
      "type": "error"
    },
    {
      "anonymous": false,
      "inputs": [
        {
          "indexed": true,
          "internalType": "address",
          "name": "owner",
          "type": "address"
        },
        {
          "indexed": true,
          "internalType": "address",
          "name": "approved",
          "type": "address"
        },
        {
          "indexed": true,
          "internalType": "uint256",
          "name": "tokenId",
          "type": "uint256"
        }
      ],
      "name": "Approval",
      "type": "event"
    },
    {
      "anonymous": false,
      "inputs": [
        {
          "indexed": true,
          "internalType": "address",
          "name": "owner",
          "type": "address"
        },
        {
          "indexed": true,
          "internalType": "address",
          "name": "operator",
          "type": "address"
        },
        {
          "indexed": false,
          "internalType": "bool",
          "name": "approved",
          "type": "bool"
        }
      ],
      "name": "ApprovalForAll",
      "type": "event"
    },
    {
      "anonymous": false,
      "inputs": [
        {
          "indexed": true,
          "internalType": "address",
          "name": "previousOwner",
          "type": "address"
        },
        {
          "indexed": true,
          "internalType": "address",
          "name": "newOwner",
          "type": "address"
        }
      ],
      "name": "OwnershipTransferred",
      "type": "event"
    },
    {
      "anonymous": false,
      "inputs": [
        {
          "indexed": true,
          "internalType": "address",
          "name": "from",
          "type": "address"
        },
        {
          "indexed": true,
          "internalType": "address",
          "name": "to",
          "type": "address"
        },
        {
          "indexed": true,
          "internalType": "uint256",
          "name": "tokenId",
          "type": "uint256"
        }
      ],
      "name": "Transfer",
      "type": "event"
    },
    {
      "inputs": [
        {
          "internalType": "address",
          "name": "to",
          "type": "address"
        },
        {
          "internalType": "uint256",
          "name": "tokenId",
          "type": "uint256"
        }
      ],
      "name": "approve",
      "outputs": [],
      "stateMutability": "nonpayable",
      "type": "function"
    },
    {
      "inputs": [
        {
          "internalType": "address",
          "name": "owner",
          "type": "address"
        }
      ],
      "name": "balanceOf",
      "outputs": [
        {
          "internalType": "uint256",
          "name": "",
          "type": "uint256"
        }
      ],
      "stateMutability": "view",
      "type": "function"
    },
    {
      "inputs": [
        {
          "internalType": "uint256",
          "name": "tokenID",
          "type": "uint256"
        }
      ],
      "name": "burnNFT",
      "outputs": [],
      "stateMutability": "nonpayable",
      "type": "function"
    },
    {
      "inputs": [
        {
          "internalType": "address",
          "name": "recipient",
          "type": "address"
        }
      ],
      "name": "createNFT",
      "outputs": [],
      "stateMutability": "nonpayable",
      "type": "function"
    },
    {
      "inputs": [
        {
          "internalType": "uint256",
          "name": "tokenId",
          "type": "uint256"
        }
      ],
      "name": "getApproved",
      "outputs": [
        {
          "internalType": "address",
          "name": "",
          "type": "address"
        }
      ],
      "stateMutability": "view",
      "type": "function"
    },
    {
      "inputs": [
        {
          "internalType": "address",
          "name": "owner",
          "type": "address"
        },
        {
          "internalType": "address",
          "name": "operator",
          "type": "address"
        }
      ],
      "name": "isApprovedForAll",
      "outputs": [
        {
          "internalType": "bool",
          "name": "",
          "type": "bool"
        }
      ],
      "stateMutability": "view",
      "type": "function"
    },
    {
      "inputs": [],
      "name": "maxSupply",
      "outputs": [
        {
          "internalType": "uint256",
          "name": "",
          "type": "uint256"
        }
      ],
      "stateMutability": "view",
      "type": "function"
    },
    {
      "inputs": [],
      "name": "name",
      "outputs": [
        {
          "internalType": "string",
          "name": "",
          "type": "string"
        }
      ],
      "stateMutability": "view",
      "type": "function"
    },
    {
      "inputs": [],
      "name": "owner",
      "outputs": [
        {
          "internalType": "address",
          "name": "",
          "type": "address"
        }
      ],
      "stateMutability": "view",
      "type": "function"
    },
    {
      "inputs": [
        {
          "internalType": "uint256",
          "name": "tokenId",
          "type": "uint256"
        }
      ],
      "name": "ownerOf",
      "outputs": [
        {
          "internalType": "address",
          "name": "",
          "type": "address"
        }
      ],
      "stateMutability": "view",
      "type": "function"
    },
    {
      "inputs": [],
      "name": "renounceOwnership",
      "outputs": [],
      "stateMutability": "nonpayable",
      "type": "function"
    },
    {
      "inputs": [
        {
          "internalType": "address",
          "name": "from",
          "type": "address"
        },
        {
          "internalType": "address",
          "name": "to",
          "type": "address"
        },
        {
          "internalType": "uint256",
          "name": "tokenId",
          "type": "uint256"
        }
      ],
      "name": "safeTransferFrom",
      "outputs": [],
      "stateMutability": "nonpayable",
      "type": "function"
    },
    {
      "inputs": [
        {
          "internalType": "address",
          "name": "from",
          "type": "address"
        },
        {
          "internalType": "address",
          "name": "to",
          "type": "address"
        },
        {
          "internalType": "uint256",
          "name": "tokenId",
          "type": "uint256"
        },
        {
          "internalType": "bytes",
          "name": "data",
          "type": "bytes"
        }
      ],
      "name": "safeTransferFrom",
      "outputs": [],
      "stateMutability": "nonpayable",
      "type": "function"
    },
    {
      "inputs": [
        {
          "internalType": "address",
          "name": "operator",
          "type": "address"
        },
        {
          "internalType": "bool",
          "name": "approved",
          "type": "bool"
        }
      ],
      "name": "setApprovalForAll",
      "outputs": [],
      "stateMutability": "nonpayable",
      "type": "function"
    },
    {
      "inputs": [
        {
          "internalType": "bytes4",
          "name": "interfaceId",
          "type": "bytes4"
        }
      ],
      "name": "supportsInterface",
      "outputs": [
        {
          "internalType": "bool",
          "name": "",
          "type": "bool"
        }
      ],
      "stateMutability": "view",
      "type": "function"
    },
    {
      "inputs": [],
      "name": "symbol",
      "outputs": [
        {
          "internalType": "string",
          "name": "",
          "type": "string"
        }
      ],
      "stateMutability": "view",
      "type": "function"
    },
    {
      "inputs": [],
      "name": "tokenCounter",
      "outputs": [
        {
          "internalType": "uint256",
          "name": "",
          "type": "uint256"
        }
      ],
      "stateMutability": "view",
      "type": "function"
    },
    {
      "inputs": [
        {
          "internalType": "uint256",
          "name": "tokenId",
          "type": "uint256"
        }
      ],
      "name": "tokenURI",
      "outputs": [
        {
          "internalType": "string",
          "name": "",
          "type": "string"
        }
      ],
      "stateMutability": "view",
      "type": "function"
    },
    {
      "inputs": [
        {
          "internalType": "address",
          "name": "from",
          "type": "address"
        },
        {
          "internalType": "address",
          "name": "to",
          "type": "address"
        },
        {
          "internalType": "uint256",
          "name": "tokenId",
          "type": "uint256"
        }
      ],
      "name": "transferFrom",
      "outputs": [],
      "stateMutability": "nonpayable",
      "type": "function"
    },
    {
      "inputs": [
        {
          "internalType": "address",
          "name": "newOwner",
          "type": "address"
        }
      ],
      "name": "transferOwnership",
      "outputs": [],
      "stateMutability": "nonpayable",
      "type": "function"
    }
  ],
  "bytecode": "0x6080604052601560085534801561001557600080fd5b50336040518060400160405280601081526020017f323044657673436f6c6c656374696f6e000000000000000000000000000000008152506040518060400160405280600481526020017f44455653000000000000000000000000000000000000000000000000000000008152508160009081610092919061044a565b5080600190816100a2919061044a565b505050600073ffffffffffffffffffffffffffffffffffffffff168173ffffffffffffffffffffffffffffffffffffffff16036101175760006040517f1e4fbdf700000000000000000000000000000000000000000000000000000000815260040161010e919061055d565b60405180910390fd5b6101268161013460201b60201c565b506001600781905550610578565b6000600660009054906101000a900473ffffffffffffffffffffffffffffffffffffffff16905081600660006101000a81548173ffffffffffffffffffffffffffffffffffffffff021916908373ffffffffffffffffffffffffffffffffffffffff1602179055508173ffffffffffffffffffffffffffffffffffffffff168173ffffffffffffffffffffffffffffffffffffffff167f8be0079c531659141344cd1fd0a4f28419497f9722a3daafe3b4186f6b6457e060405160405180910390a35050565b600081519050919050565b7f4e487b7100000000000000000000000000000000000000000000000000000000600052604160045260246000fd5b7f4e487b7100000000000000000000000000000000000000000000000000000000600052602260045260246000fd5b6000600282049050600182168061027b57607f821691505b60208210810361028e5761028d610234565b5b50919050565b60008190508160005260206000209050919050565b60006020601f8301049050919050565b600082821b905092915050565b6000600883026102f67fffffffffffffffffffffffffffffffffffffffffffffffffffffffffffffffff826102b9565b61030086836102b9565b95508019841693508086168417925050509392505050565b6000819050919050565b6000819050919050565b600061034761034261033d84610318565b610322565b610318565b9050919050565b6000819050919050565b6103618361032c565b61037561036d8261034e565b8484546102c6565b825550505050565b600090565b61038a61037d565b610395818484610358565b505050565b5b818110156103b9576103ae600082610382565b60018101905061039b565b5050565b601f8211156103fe576103cf81610294565b6103d8846102a9565b810160208510156103e7578190505b6103fb6103f3856102a9565b83018261039a565b50505b505050565b600082821c905092915050565b600061042160001984600802610403565b1980831691505092915050565b600061043a8383610410565b9150826002028217905092915050565b610453826101fa565b67ffffffffffffffff81111561046c5761046b610205565b5b6104768254610263565b6104818282856103bd565b600060209050601f8311600181146104b457600084156104a2578287015190505b6104ac858261042e565b865550610514565b601f1984166104c286610294565b60005b828110156104ea578489015182556001820191506020850194506020810190506104c5565b868310156105075784890151610503601f891682610410565b8355505b6001600288020188555050505b505050505050565b600073ffffffffffffffffffffffffffffffffffffffff82169050919050565b60006105478261051c565b9050919050565b6105578161053c565b82525050565b6000602082019050610572600083018461054e565b92915050565b6125ae806105876000396000f3fe608060405234801561001057600080fd5b506004361061012c5760003560e01c8063715018a6116100ad578063c87b56dd11610071578063c87b56dd14610319578063d082e38114610349578063d5abeb0114610367578063e985e9c514610385578063f2fde38b146103b55761012c565b8063715018a61461029b5780638da5cb5b146102a557806395d89b41146102c3578063a22cb465146102e1578063b88d4fde146102fd5761012c565b806323b872dd116100f457806323b872dd146101e75780632890e0d71461020357806342842e0e1461021f5780636352211e1461023b57806370a082311461026b5761012c565b806301ffc9a71461013157806306fdde0314610161578063081812fc1461017f578063095ea7b3146101af57806317e5883c146101cb575b600080fd5b61014b60048036038101906101469190611b1e565b6103d1565b6040516101589190611b66565b60405180910390f35b6101696104b3565b6040516101769190611c11565b60405180910390f35b61019960048036038101906101949190611c69565b610545565b6040516101a69190611cd7565b60405180910390f35b6101c960048036038101906101c49190611d1e565b610561565b005b6101e560048036038101906101e09190611d5e565b610577565b005b61020160048036038101906101fc9190611d8b565b6105ec565b005b61021d60048036038101906102189190611c69565b6106ee565b005b61023960048036038101906102349190611d8b565b6107bd565b005b61025560048036038101906102509190611c69565b6107dd565b6040516102629190611cd7565b60405180910390f35b61028560048036038101906102809190611d5e565b6107ef565b6040516102929190611ded565b60405180910390f35b6102a36108a9565b005b6102ad6108bd565b6040516102ba9190611cd7565b60405180910390f35b6102cb6108e7565b6040516102d89190611c11565b60405180910390f35b6102fb60048036038101906102f69190611e34565b610979565b005b61031760048036038101906103129190611fa9565b61098f565b005b610333600480360381019061032e9190611c69565b6109b4565b6040516103409190611c11565b60405180910390f35b610351610a33565b60405161035e9190611ded565b60405180910390f35b61036f610a39565b60405161037c9190611ded565b60405180910390f35b61039f600480360381019061039a919061202c565b610a3f565b6040516103ac9190611b66565b60405180910390f35b6103cf60048036038101906103ca9190611d5e565b610ad3565b005b60007f80ac58cd000000000000000000000000000000000000000000000000000000007bffffffffffffffffffffffffffffffffffffffffffffffffffffffff1916827bffffffffffffffffffffffffffffffffffffffffffffffffffffffff1916148061049c57507f5b5e139f000000000000000000000000000000000000000000000000000000007bffffffffffffffffffffffffffffffffffffffffffffffffffffffff1916827bffffffffffffffffffffffffffffffffffffffffffffffffffffffff1916145b806104ac57506104ab82610b59565b5b9050919050565b6060600080546104c29061209b565b80601f01602080910402602001604051908101604052809291908181526020018280546104ee9061209b565b801561053b5780601f106105105761010080835404028352916020019161053b565b820191906000526020600020905b81548152906001019060200180831161051e57829003601f168201915b5050505050905090565b600061055082610bc3565b5061055a82610c4b565b9050919050565b610573828261056e610c88565b610c90565b5050565b61057f610ca2565b600854600754106105c5576040517f08c379a00000000000000000000000000000000000000000000000000000000081526004016105bc90612118565b60405180910390fd5b6105d181600754610d29565b600760008154809291906105e490612167565b919050555050565b600073ffffffffffffffffffffffffffffffffffffffff168273ffffffffffffffffffffffffffffffffffffffff160361065e5760006040517f64a0ae920000000000000000000000000000000000000000000000000000000081526004016106559190611cd7565b60405180910390fd5b6000610672838361066d610c88565b610d47565b90508373ffffffffffffffffffffffffffffffffffffffff168173ffffffffffffffffffffffffffffffffffffffff16146106e8578382826040517f64283d7b0000000000000000000000000000000000000000000000000000000081526004016106df939291906121af565b60405180910390fd5b50505050565b6106f6610ca2565b3373ffffffffffffffffffffffffffffffffffffffff1661071682610f61565b73ffffffffffffffffffffffffffffffffffffffff161461076c576040517f08c379a000000000000000000000000000000000000000000000000000000000815260040161076390612232565b60405180910390fd5b6007548111156107b1576040517f08c379a00000000000000000000000000000000000000000000000000000000081526004016107a89061229e565b60405180910390fd5b6107ba81610f9e565b50565b6107d88383836040518060200160405280600081525061098f565b505050565b60006107e882610bc3565b9050919050565b60008073ffffffffffffffffffffffffffffffffffffffff168273ffffffffffffffffffffffffffffffffffffffff16036108625760006040517f89c62b640000000000000000000000000000000000000000000000000000000081526004016108599190611cd7565b60405180910390fd5b600360008373ffffffffffffffffffffffffffffffffffffffff1673ffffffffffffffffffffffffffffffffffffffff168152602001908152602001600020549050919050565b6108b1610ca2565b6108bb6000611024565b565b6000600660009054906101000a900473ffffffffffffffffffffffffffffffffffffffff16905090565b6060600180546108f69061209b565b80601f01602080910402602001604051908101604052809291908181526020018280546109229061209b565b801561096f5780601f106109445761010080835404028352916020019161096f565b820191906000526020600020905b81548152906001019060200180831161095257829003601f168201915b5050505050905090565b61098b610984610c88565b83836110ea565b5050565b61099a8484846105ec565b6109ae6109a5610c88565b85858585611259565b50505050565b60606007548211156109fb576040517f08c379a00000000000000000000000000000000000000000000000000000000081526004016109f290612330565b60405180910390fd5b610a0361140a565b610a0c8361142a565b604051602001610a1d9291906123d8565b6040516020818303038152906040529050919050565b60075481565b60085481565b6000600560008473ffffffffffffffffffffffffffffffffffffffff1673ffffffffffffffffffffffffffffffffffffffff16815260200190815260200160002060008373ffffffffffffffffffffffffffffffffffffffff1673ffffffffffffffffffffffffffffffffffffffff16815260200190815260200160002060009054906101000a900460ff16905092915050565b610adb610ca2565b600073ffffffffffffffffffffffffffffffffffffffff168173ffffffffffffffffffffffffffffffffffffffff1603610b4d5760006040517f1e4fbdf7000000000000000000000000000000000000000000000000000000008152600401610b449190611cd7565b60405180910390fd5b610b5681611024565b50565b60007f01ffc9a7000000000000000000000000000000000000000000000000000000007bffffffffffffffffffffffffffffffffffffffffffffffffffffffff1916827bffffffffffffffffffffffffffffffffffffffffffffffffffffffff1916149050919050565b600080610bcf83610f61565b9050600073ffffffffffffffffffffffffffffffffffffffff168173ffffffffffffffffffffffffffffffffffffffff1603610c4257826040517f7e273289000000000000000000000000000000000000000000000000000000008152600401610c399190611ded565b60405180910390fd5b80915050919050565b60006004600083815260200190815260200160002060009054906101000a900473ffffffffffffffffffffffffffffffffffffffff169050919050565b600033905090565b610c9d83838360016114f8565b505050565b610caa610c88565b73ffffffffffffffffffffffffffffffffffffffff16610cc86108bd565b73ffffffffffffffffffffffffffffffffffffffff1614610d2757610ceb610c88565b6040517f118cdaa7000000000000000000000000000000000000000000000000000000008152600401610d1e9190611cd7565b60405180910390fd5b565b610d438282604051806020016040528060008152506116bd565b5050565b600080610d5384610f61565b9050600073ffffffffffffffffffffffffffffffffffffffff168373ffffffffffffffffffffffffffffffffffffffff1614610d9557610d948184866116e1565b5b600073ffffffffffffffffffffffffffffffffffffffff168173ffffffffffffffffffffffffffffffffffffffff1614610e2657610dd76000856000806114f8565b6001600360008373ffffffffffffffffffffffffffffffffffffffff1673ffffffffffffffffffffffffffffffffffffffff168152602001908152602001600020600082825403925050819055505b600073ffffffffffffffffffffffffffffffffffffffff168573ffffffffffffffffffffffffffffffffffffffff1614610ea9576001600360008773ffffffffffffffffffffffffffffffffffffffff1673ffffffffffffffffffffffffffffffffffffffff168152602001908152602001600020600082825401925050819055505b846002600086815260200190815260200160002060006101000a81548173ffffffffffffffffffffffffffffffffffffffff021916908373ffffffffffffffffffffffffffffffffffffffff160217905550838573ffffffffffffffffffffffffffffffffffffffff168273ffffffffffffffffffffffffffffffffffffffff167fddf252ad1be2c89b69c2b068fc378daa952ba7f163c4a11628f55a4df523b3ef60405160405180910390a4809150509392505050565b60006002600083815260200190815260200160002060009054906101000a900473ffffffffffffffffffffffffffffffffffffffff169050919050565b6000610fad6000836000610d47565b9050600073ffffffffffffffffffffffffffffffffffffffff168173ffffffffffffffffffffffffffffffffffffffff160361102057816040517f7e2732890000000000000000000000000000000000000000000000000000000081526004016110179190611ded565b60405180910390fd5b5050565b6000600660009054906101000a900473ffffffffffffffffffffffffffffffffffffffff16905081600660006101000a81548173ffffffffffffffffffffffffffffffffffffffff021916908373ffffffffffffffffffffffffffffffffffffffff1602179055508173ffffffffffffffffffffffffffffffffffffffff168173ffffffffffffffffffffffffffffffffffffffff167f8be0079c531659141344cd1fd0a4f28419497f9722a3daafe3b4186f6b6457e060405160405180910390a35050565b600073ffffffffffffffffffffffffffffffffffffffff168273ffffffffffffffffffffffffffffffffffffffff160361115b57816040517f5b08ba180000000000000000000000000000000000000000000000000000000081526004016111529190611cd7565b60405180910390fd5b80600560008573ffffffffffffffffffffffffffffffffffffffff1673ffffffffffffffffffffffffffffffffffffffff16815260200190815260200160002060008473ffffffffffffffffffffffffffffffffffffffff1673ffffffffffffffffffffffffffffffffffffffff16815260200190815260200160002060006101000a81548160ff0219169083151502179055508173ffffffffffffffffffffffffffffffffffffffff168373ffffffffffffffffffffffffffffffffffffffff167f17307eab39ab6107e8899845ad3d59bd9653f200f220920489ca2b5937696c318360405161124c9190611b66565b60405180910390a3505050565b60008373ffffffffffffffffffffffffffffffffffffffff163b1115611403578273ffffffffffffffffffffffffffffffffffffffff1663150b7a02868685856040518563ffffffff1660e01b81526004016112b8949392919061245c565b6020604051808303816000875af19250505080156112f457506040513d601f19601f820116820180604052508101906112f191906124bd565b60015b611378573d8060008114611324576040519150601f19603f3d011682016040523d82523d6000602084013e611329565b606091505b50600081510361137057836040517f64a0ae920000000000000000000000000000000000000000000000000000000081526004016113679190611cd7565b60405180910390fd5b805181602001fd5b63150b7a0260e01b7bffffffffffffffffffffffffffffffffffffffffffffffffffffffff1916817bffffffffffffffffffffffffffffffffffffffffffffffffffffffff19161461140157836040517f64a0ae920000000000000000000000000000000000000000000000000000000081526004016113f89190611cd7565b60405180910390fd5b505b5050505050565b606060405180606001604052806036815260200161254360369139905090565b606060006001611439846117a5565b01905060008167ffffffffffffffff81111561145857611457611e7e565b5b6040519080825280601f01601f19166020018201604052801561148a5781602001600182028036833780820191505090505b509050600082602001820190505b6001156114ed578080600190039150507f3031323334353637383961626364656600000000000000000000000000000000600a86061a8153600a85816114e1576114e06124ea565b5b04945060008503611498575b819350505050919050565b80806115315750600073ffffffffffffffffffffffffffffffffffffffff168273ffffffffffffffffffffffffffffffffffffffff1614155b1561166557600061154184610bc3565b9050600073ffffffffffffffffffffffffffffffffffffffff168373ffffffffffffffffffffffffffffffffffffffff16141580156115ac57508273ffffffffffffffffffffffffffffffffffffffff168173ffffffffffffffffffffffffffffffffffffffff1614155b80156115bf57506115bd8184610a3f565b155b1561160157826040517fa9fbf51f0000000000000000000000000000000000000000000000000000000081526004016115f89190611cd7565b60405180910390fd5b811561166357838573ffffffffffffffffffffffffffffffffffffffff168273ffffffffffffffffffffffffffffffffffffffff167f8c5be1e5ebec7d5bd14f71427d1e84f3dd0314c0f7b2291e5b200ac8c7c3b92560405160405180910390a45b505b836004600085815260200190815260200160002060006101000a81548173ffffffffffffffffffffffffffffffffffffffff021916908373ffffffffffffffffffffffffffffffffffffffff16021790555050505050565b6116c783836118f8565b6116dc6116d2610c88565b6000858585611259565b505050565b6116ec8383836119f1565b6117a057600073ffffffffffffffffffffffffffffffffffffffff168373ffffffffffffffffffffffffffffffffffffffff160361176157806040517f7e2732890000000000000000000000000000000000000000000000000000000081526004016117589190611ded565b60405180910390fd5b81816040517f177e802f000000000000000000000000000000000000000000000000000000008152600401611797929190612519565b60405180910390fd5b505050565b600080600090507a184f03e93ff9f4daa797ed6e38ed64bf6a1f0100000000000000008310611803577a184f03e93ff9f4daa797ed6e38ed64bf6a1f01000000000000000083816117f9576117f86124ea565b5b0492506040810190505b6d04ee2d6d415b85acef81000000008310611840576d04ee2d6d415b85acef81000000008381611836576118356124ea565b5b0492506020810190505b662386f26fc10000831061186f57662386f26fc100008381611865576118646124ea565b5b0492506010810190505b6305f5e1008310611898576305f5e100838161188e5761188d6124ea565b5b0492506008810190505b61271083106118bd5761271083816118b3576118b26124ea565b5b0492506004810190505b606483106118e057606483816118d6576118d56124ea565b5b0492506002810190505b600a83106118ef576001810190505b80915050919050565b600073ffffffffffffffffffffffffffffffffffffffff168273ffffffffffffffffffffffffffffffffffffffff160361196a5760006040517f64a0ae920000000000000000000000000000000000000000000000000000000081526004016119619190611cd7565b60405180910390fd5b600061197883836000610d47565b9050600073ffffffffffffffffffffffffffffffffffffffff168173ffffffffffffffffffffffffffffffffffffffff16146119ec5760006040517f73c6ac6e0000000000000000000000000000000000000000000000000000000081526004016119e39190611cd7565b60405180910390fd5b505050565b60008073ffffffffffffffffffffffffffffffffffffffff168373ffffffffffffffffffffffffffffffffffffffff1614158015611aa957508273ffffffffffffffffffffffffffffffffffffffff168473ffffffffffffffffffffffffffffffffffffffff161480611a6a5750611a698484610a3f565b5b80611aa857508273ffffffffffffffffffffffffffffffffffffffff16611a9083610c4b565b73ffffffffffffffffffffffffffffffffffffffff16145b5b90509392505050565b6000604051905090565b600080fd5b600080fd5b60007fffffffff0000000000000000000000000000000000000000000000000000000082169050919050565b611afb81611ac6565b8114611b0657600080fd5b50565b600081359050611b1881611af2565b92915050565b600060208284031215611b3457611b33611abc565b5b6000611b4284828501611b09565b91505092915050565b60008115159050919050565b611b6081611b4b565b82525050565b6000602082019050611b7b6000830184611b57565b92915050565b600081519050919050565b600082825260208201905092915050565b60005b83811015611bbb578082015181840152602081019050611ba0565b60008484015250505050565b6000601f19601f8301169050919050565b6000611be382611b81565b611bed8185611b8c565b9350611bfd818560208601611b9d565b611c0681611bc7565b840191505092915050565b60006020820190508181036000830152611c2b8184611bd8565b905092915050565b6000819050919050565b611c4681611c33565b8114611c5157600080fd5b50565b600081359050611c6381611c3d565b92915050565b600060208284031215611c7f57611c7e611abc565b5b6000611c8d84828501611c54565b91505092915050565b600073ffffffffffffffffffffffffffffffffffffffff82169050919050565b6000611cc182611c96565b9050919050565b611cd181611cb6565b82525050565b6000602082019050611cec6000830184611cc8565b92915050565b611cfb81611cb6565b8114611d0657600080fd5b50565b600081359050611d1881611cf2565b92915050565b60008060408385031215611d3557611d34611abc565b5b6000611d4385828601611d09565b9250506020611d5485828601611c54565b9150509250929050565b600060208284031215611d7457611d73611abc565b5b6000611d8284828501611d09565b91505092915050565b600080600060608486031215611da457611da3611abc565b5b6000611db286828701611d09565b9350506020611dc386828701611d09565b9250506040611dd486828701611c54565b9150509250925092565b611de781611c33565b82525050565b6000602082019050611e026000830184611dde565b92915050565b611e1181611b4b565b8114611e1c57600080fd5b50565b600081359050611e2e81611e08565b92915050565b60008060408385031215611e4b57611e4a611abc565b5b6000611e5985828601611d09565b9250506020611e6a85828601611e1f565b9150509250929050565b600080fd5b600080fd5b7f4e487b7100000000000000000000000000000000000000000000000000000000600052604160045260246000fd5b611eb682611bc7565b810181811067ffffffffffffffff82111715611ed557611ed4611e7e565b5b80604052505050565b6000611ee8611ab2565b9050611ef48282611ead565b919050565b600067ffffffffffffffff821115611f1457611f13611e7e565b5b611f1d82611bc7565b9050602081019050919050565b82818337600083830152505050565b6000611f4c611f4784611ef9565b611ede565b905082815260208101848484011115611f6857611f67611e79565b5b611f73848285611f2a565b509392505050565b600082601f830112611f9057611f8f611e74565b5b8135611fa0848260208601611f39565b91505092915050565b60008060008060808587031215611fc357611fc2611abc565b5b6000611fd187828801611d09565b9450506020611fe287828801611d09565b9350506040611ff387828801611c54565b925050606085013567ffffffffffffffff81111561201457612013611ac1565b5b61202087828801611f7b565b91505092959194509250565b6000806040838503121561204357612042611abc565b5b600061205185828601611d09565b925050602061206285828601611d09565b9150509250929050565b7f4e487b7100000000000000000000000000000000000000000000000000000000600052602260045260246000fd5b600060028204905060018216806120b357607f821691505b6020821081036120c6576120c561206c565b5b50919050565b7f4d6178204e465420537570706c79207265616368656400000000000000000000600082015250565b6000612102601683611b8c565b915061210d826120cc565b602082019050919050565b60006020820190508181036000830152612131816120f5565b9050919050565b7f4e487b7100000000000000000000000000000000000000000000000000000000600052601160045260246000fd5b600061217282611c33565b91507fffffffffffffffffffffffffffffffffffffffffffffffffffffffffffffffff82036121a4576121a3612138565b5b600182019050919050565b60006060820190506121c46000830186611cc8565b6121d16020830185611dde565b6121de6040830184611cc8565b949350505050565b7f596f752063616e206f6e6c79206275726e20746f6b656e7320796f75206f776e600082015250565b600061221c602083611b8c565b9150612227826121e6565b602082019050919050565b6000602082019050818103600083015261224b8161220f565b9050919050565b7f546f6b656e20494420686173206e6f74206265656e206d696e74656400000000600082015250565b6000612288601c83611b8c565b915061229382612252565b602082019050919050565b600060208201905081810360008301526122b78161227b565b9050919050565b7f4552433732314d657461646174613a2055524920717565727920666f72206e6f60008201527f6e6578697374656e7420746f6b656e0000000000000000000000000000000000602082015250565b600061231a602f83611b8c565b9150612325826122be565b604082019050919050565b600060208201905081810360008301526123498161230d565b9050919050565b600081905092915050565b600061236682611b81565b6123708185612350565b9350612380818560208601611b9d565b80840191505092915050565b7f2e6a736f6e000000000000000000000000000000000000000000000000000000600082015250565b60006123c2600583612350565b91506123cd8261238c565b600582019050919050565b60006123e4828561235b565b91506123f0828461235b565b91506123fb826123b5565b91508190509392505050565b600081519050919050565b600082825260208201905092915050565b600061242e82612407565b6124388185612412565b9350612448818560208601611b9d565b61245181611bc7565b840191505092915050565b60006080820190506124716000830187611cc8565b61247e6020830186611cc8565b61248b6040830185611dde565b818103606083015261249d8184612423565b905095945050505050565b6000815190506124b781611af2565b92915050565b6000602082840312156124d3576124d2611abc565b5b60006124e1848285016124a8565b91505092915050565b7f4e487b7100000000000000000000000000000000000000000000000000000000600052601260045260246000fd5b600060408201905061252e6000830185611cc8565b61253b6020830184611dde565b939250505056fe697066733a2f2f516d57766e577a7959376747455435717977643372777143486e7452335174376e61626b7a38685a4c39533653722fa2646970667358221220075d0780482a3d23673ac94776b4be594afa07f49a1a29ace8327102bd38327764736f6c634300081b0033",
  "linkReferences": {},
  "deployedLinkReferences": {}
}